:020000040800F2
:1000000028090020350200080D24000849210008B5
:100010000924000881180008FF2D000800000000D6
:10002000000000000000000000000000E9270008B8
:10003000511D000800000000D3260008FD2800081C
:100040002D2E00084F0200084F0200084F02000842
:100050004F0200084F0200084F0200084F0200083C
:100060004F0200084F020008D11D00084F0200088F
:100070004F0200084F0200084F0200084F0200081C
:100080004F0200084F0200084F0200084F0200080C
:100090004F0200084F0200084F020008091E000826
:1000A0004F0200084F0200084F0200084F020008EC
:1000B0004F0200084F0200084F0200084F020008DC
:1000C0004F0200084F0200084F0200084F020008CC
:1000D0004F020008A12A0008992B00084F020008CF
:1000E0004F0200084F0200084F02000800F002F81B
:1000F00000F090F80AA090E8000C82448344AAF132
:100100000107DA4501D100F085F8AFF2090EBAE82F
:100110000F0013F0010F18BFFB1A43F0010318473B
:10012000E83A0000083B0000103A24BF78C878C1C4
:10013000FAD8520724BF30C830C144BF04680C60ED
:10014000704700000023002400250026103A28BF35
:1001500078C1FBD8520728BF30C148BF0B60704739
:100160006E2900F08482702900F0F783662903F07D
:10017000D180652903F0CE80672903F0CB80612907
:10018000AFF3008003681B0A28BF41F08001692992
:1001900000F0FE80642900F0FB80752900F0F880F3
:1001A0006F2900F08483782900F0C383E92900F0E7
:1001B0001F83E42900F01C83F52900F01983EF293F
:1001C00000F08183F82900F0C2830368DB0928BFAF
:1001D00041F08001632900F08E82732900F0938240
:1001E000E32900F02786F32900F02C8600207047D1
:1001F0001FB500F07DFE04000020002103F074F81C
:10020000401C60600020002103F058F8E0601FBD32
:1002100010B510BD00F03EFE1146FFF7E9FF02F0F9
:1002200099FE00F01BFF03B4FFF7F2FF03BC02F0DE
:1002300080FE00000948804709480047FEE7FEE7C6
:10024000FEE7FEE7FEE7FEE7FEE7FEE7FEE7FEE786
:1002500004480549054A064B704700000D2900086F
:10026000ED000008280300202809002028050020B0
:1002700028050020704700007CB51D4616460C007E
:10028000009001D02044401E074B7B442A4669461B
:100290000190304600F005FA05461CB10020694681
:1002A00000F012FA28467CBD450400000FB4044952
:1002B00010B503AA029800F02BFA10BC5DF814FBED
:1002C000480000200FB41CB5084B06AA7B446946C1
:1002D0000090059800F0E5F904460020694600F01A
:1002E000F3F920461CBC5DF814FB0000F903000084
:1002F00070B5044685690068C10601D5302600E066
:100300002026C00707D070BDD4E9012130469047B0
:10031000206A401C20626D1EF6D570BD70B5044683
:1003200085690078C00707D170BDD4E9012120207C
:100330009047206A401C20626D1EF6D570BD70B5D6
:100340000C460546012A05D02878800600D5EA69C2
:10035000002302E0012305E05B1C934202D2E05C33
:100360000028F9D1A869E618C01AA861286A1844BB
:1003700028622846FFF7BCFF04E0D5E9012114F804
:10038000010B9047B442F8D32846FFF7C7FF70BD72
:100390002DE9F0410646002410687529314616A55E
:1003A00010D000F0F9F8002802DA404213A507E067
:1003B00031688A0701D512A502E0490704D511A5C5
:1003C000012401E000F0F1F800210A2206F12407DF
:1003D00009E0B0FBF2FCB0FBF2F302FB1C00303092
:1003E00078541846491C0028F3D123462A46304643
:1003F000BDE8F04100F0E2B8000000002D00000070
:100400002B000000200000002DE9F05F8946044623
:100410004FF0000ADFF874B1FB44C0F820A020467A
:10042000E1688847002874D0252806D0D4E9012146
:100430009047206A401C2062F1E700265F46204674
:10044000E16888472028054607DB312D05D2781959
:1004500010F8200C08B10643F1E7B00701D526F0EB
:100460000406C4F81CA00027C4F818A02A2D09D03F
:10047000284602F057FD38B304EB8708303DC8F832
:10048000185019E059F8041B204604EB87029161CB
:10049000E1688847012F054618D1E069002820DA75
:1004A00026F020061DE0D8F8180000EB800005EBD0
:1004B00040003038C8F818002046E16888470546F3
:1004C00002F030FD0028EED1012F0AD02E2D08D1E8
:1004D0002046E16888477F1C0546022F46F020062B
:1004E000C4DBA069002803DA404246F00106A0619F
:1004F000F00701D026F010066C2D0BD0682D09D026
:100500004C2D39D06A2D35D0742D35D07A2D33D07D
:1005100016E038E0E1682F4620468847B842054695
:1005200009D16C2F26D04FF48060E1680643204645
:100530008847054604E06C2F1AD04FF480700643BC
:100540000DB3A5F14100192802D8203546F4006604
:100550004A462946204626604E46FFF701FE80B1F6
:1005600001280BD0F61D26F0070000F1080956E718
:100570004020E4E78020D8E70020D6E706F1040910
:100580004DE7284652E7206ABDE8F09F1437000087
:10059000704770477047704709684A0501D540B2F7
:1005A0007047C905FCD500B2704709684A0501D5F6
:1005B000C0B27047C905FCD580B270472DE9F0473D
:1005C0000D4699469246044600F1240801688806C3
:1005D00004D5E06921F01001216000E00120A8426B
:1005E00001DD471B00E00027A1697A1902EB090031
:1005F000081AA0612078C00602D42046FFF778FED2
:10060000002608E0D4E901211AF806009047206A84
:10061000401C761C20624E45F4DB2078C0060AD5CB
:100620002046FFF765FE06E0D4E90121302090471F
:10063000206A401C2062381EA7F10107F4DC07E0A5
:10064000D4E9012118F805009047206A401C206277
:10065000281EA5F10105F3DC2046FFF75FFE207898
:10066000000602D50220BDE8F0870120FBE71168F3
:100670000268006A530501D508700AE0D30501D568
:10068000088006E0130603D5C217C1E9000200E0A6
:10069000086001207047000001694A1C0261087867
:1006A000704700B58FB0CDE90131002105910549B2
:1006B0007944CDE9031011466846FFF7A5FE0FB057
:1006C00000BD0000E5FFFFFF0A6802F8010B0A60A9
:1006D0007047D1E900239A4202D2531C0B6010707C
:1006E000704710B5436913B1AFF3008001E0FFF725
:1006F00026FE012010BD127800F124010A700022AC
:100700004A700122EDE711684FF0FF32E9E700007F
:10071000074B70B50D467B44FFF7C3FF04462846E0
:1007200000F094FB10B14FF0FF3070BD204670BD5B
:100730001F2800002DE9FF5F15468A460446DFF8B2
:10074000AC80F8440027D8E900103E46CDE90010FF
:1007500010E03AF816106A4602A800F07BFB411C34
:1007600007D02178890603D5E269391891420DD85E
:100770000744761C2078800602D5E069B84205DD82
:10078000AE42E6DB3AF816000028E2D1A069C01BB1
:10079000A0612046FFF7ACFDD8E90010CDE90010BC
:1007A000002017E03AF818106A4602A800F052FB41
:1007B000B0F1FF3F81460BD000250DF1080B05E09D
:1007C000D4E901211BF8050090476D1C4D45F7D376
:1007D00008F10100B0428046E4DB206A3844206220
:1007E0002046FFF79BFDBDE8FF9F0000FE330000A1
:1007F0002DE9F0418046D21D22F007020025D2E902
:100800000002F52915A614D0011E72F1000106DAC6
:100810000023D0EB030063EB020211A608E0D8F836
:1008200000108B0701D50FA602E0490701D50EA6DF
:1008300001251146002408F1240704E000F09CF88B
:1008400030323A55641C50EA0102F7D12B46324649
:1008500021464046BDE8F041FFF7B0BE0000000071
:100860002D0000002B0000002000000030B400210B
:1008700000F1240408E002F00705D208303542EA0E
:100880004372DB086554491C52EA0305F3D104683E
:10089000002310A2250707D5A40600D421B1C469FE
:1008A00001230DA2641EC46130BCFFF787BE10B5E2
:1008B000044621461068FFF778FE02462046BDE850
:1008C00010400023D2E7D21D22F00701D1E9002316
:1008D000CCE700000000000030000000F0B40D463E
:1008E0000188090502D5214C7C4402E01F4C7C4460
:1008F0000E34002100F1240608E002F00F0712096F
:10090000E75D42EA03721B097754491C52EA030768
:10091000F3D102780023120704D5702D06D009B157
:10092000022311342246F0BCFFF748BE01231034E5
:10093000F8E770B504460D4621461068FFF735FE0E
:10094000024629462046BDE870400023C6E7D21D76
:1009500022F00703D3E90023C0E70368126843F0DD
:10096000200303600823C3610023B7E7603200005F
:1009700000487047C802002030B5B0F10A024FEAC3
:10098000900E71F100034EEA817EB0EB0E0061EB38
:1009900091014FEA101E4EEA017E10EB0E0041EB72
:1009A00011114FEA102E4EEA016E10EB0E0041EBD2
:1009B00011214FEA104E4EEA014E10EB0E0041EBB2
:1009C0001141401841F100014FEAD00040EA417066
:1009D0004FEAD10110EB80054FEA810444EA90749C
:1009E00044EB01046D1944EB0404521BA3414FF086
:1009F000000348BF0A3200D530BD401C41F1000160
:100A000030BD70472DE9FF4F0C461E464FF0FF37B3
:100A10008BB0D2E90001DDF860800A908A46C1F30C
:100A20000A5505B93D46002108464FF00000BAF1CD
:100A3000000F00F4400005DA00EB80004FF44001A5
:100A400001EA50004FEA9059B9F1010F00DDB946B3
:100A50000A9850EA4A000ED044F61050A5F2FF352D
:100A600045432F14B8F1000F1ED07542291E1EDD1C
:100A7000C9F100021CE0B8F1010F4FF0000001D0F5
:100A8000302103E0F24305E02154401CB042FBDB7F
:100A900030460022002121540B99C1F80880C1E999
:100AA00000200FB0BDE8F08FBD1B6D1CDEE74A468D
:100AB00000DA694206A800F05FFA06AB93E8070087
:100AC00003AB83E8070050460A9900F011FB8DE85C
:100AD0000700A0F500501F3800900398002D0ADD94
:100AE00042F21F014A460844002303A903906846C6
:100AF00000F07AFD09E0A0F500504A461F380023B7
:100B000003A90390684600F084FD8DE80700000407
:100B1000000C03D04FF0FF30410800E01046B8F160
:100B2000000F03D00022009215461EE0751E05D46A
:100B3000FFF722FF303262556D1EF9D5B346012210
:100B4000084302D000227F1C04E02078302801D125
:100B500000227F1E002A099784D01DE0112D07DA9C
:100B6000FFF70AFF303262556D1C50EA0102F5D1E1
:100B7000084302D00098C8B10EE00021681E05E0CD
:100B8000235C625C63542254401E491C8142F7DBA3
:100B9000AB46A81B401E0990002004F80B000B98E0
:100BA000099AC0F80880C0E9002B7AE711264FF0B7
:100BB000000857E72DE9F04F88460446D21D22F081
:100BC000070191B0D1E90001CDE90A0102F096F9DF
:100BD00002460B98C00F01D02D2007E02068810746
:100BE00001D52B2002E0202101EAC000032A099050
:100BF00001D0072A05DB03464146204600F07CF978
:100C00000BE12078800601D5E06900E00620B8F10C
:100C1000650F814606D0B8F1660F18D0B8F1670F9E
:100C200070D131E00020B9F1110F009001DB1123E8
:100C300001E009F101030AAA01A90CA8FFF7E2FEED
:100C4000DDE90C70002609F10105834647E001202B
:100C50004B4600904FF000470AAA01A90CA8FFF7E5
:100C6000D1FEDDE90DB00C995D46002610B909F101
:100C700001000D18B9EB050003D4C0F1FF3609F1EE
:100C80000105A5EB09002BE0B9F1010F01DA4FF0E6
:100C900001090020B9F1110F0090484601DD112330
:100CA00000E003460AAA01A90CA8FFF7ABFEDDE9A4
:100CB0000C704D4600268346207800070AD4AB45C9
:100CC00000DA5D4601A8012D04DD411911F8011C6F
:100CD000302907D04F4502DA17F1040F04DA01205A
:100CE00082460FE06D1EEEE7002F02DCED1B3E4456
:100CF00003E0781CA84200DD7D1CB81B00F1010A4E
:100D00004FF000472078000703D4AA4501DB4FF0DD
:100D1000FF3A0021B7F1004F0DF143088DF8431061
:100D200024D002202B23002F01DA7F422D230A2119
:100D3000021EA0F1010000DC5FB197FBF1FC97FB04
:100D4000F1F201FB1C7C17460CF1300C08F801CDC8
:100D5000EEE7A8F1010003702188090501D54521BE
:100D600000E06521A0F1010800F8011C09980FA915
:100D7000A1EB0807FF1D00B10120411901EBEA704A
:100D8000A1693844081A401EA0612078C00602D428
:100D90002046FFF7ADFA099828B1D4E90121904720
:100DA000206A401C20622078C00622D52046FFF72A
:100DB0009FFA1EE0002E04DBB34502DD01A8805D32
:100DC00000E03020D4E901219047206A401C2062D5
:100DD000761CAAF101005FEA000A0AD100F088F847
:100DE000C0680168405CD4E901219047206A401C3A
:100DF0002062281EA5F10105DCDC07E0D4E9012111
:100E000018F8010B9047206A401C2062381EA7F199
:100E10000107F3DC2046FFF781FA032011B041E619
:100E200010B5436913B1AFF3008001E0FFF782FC16
:100E3000012010BD128800F1240182840022C284A6
:100E40000122EDE711684FF0FF32E9E7007B00F087
:100E50008000704770B516460C46054600F040F815
:100E6000036893F80101012806D0FF2C0FD8185D04
:100E700068B101202C7070BDD3F8070132462146BD
:100E800003F2071303442846BDE8704018474FF0AB
:100E9000FF3070BD7546FFF76BFDAE460500694635
:100EA000534620F00700854618B020B5FFF7D0F96B
:100EB000BDE820404FF000064FF000074FF000085B
:100EC0004FF0000B21F00701AC46ACE8C009ACE8DC
:100ED000C009ACE8C009ACE8C0098D467047000005
:100EE00010B500F005F8001D10BD00BFFD23000087
:100EF00000487047E80200202DE9F0411F460446F3
:100F000003260168072A01F4006004DB08B116A576
:100F100005E016A503E008B115A500E015A521F030
:100F200010002060A069C01EA0610FB1401EA0612A
:100F30002046FFF7DDF94FB1D4E90121384690474B
:100F4000206A401C2062C01C206206E0206AFAE78A
:100F5000D4E9012115F8010B9047761EF8D22046FE
:100F6000FFF7DCF9BDE8F0814E414E006E616E0086
:100F7000494E4600696E66002DE9F04781461646E7
:100F80008AB0354878440DC88DE80D003248784461
:100F9000801C03AC0DC884E80D0041F69B3008446A
:100FA000372190FBF1F290FBF1F5A5F1800501FBF3
:100FB00012041B3C02D56442012000E00020DFF84F
:100FC00098A080460027FA44AAF1BE0A0EE0E00786
:100FD0000AD03246684607EB470101230AEB81013C
:100FE00000F017FB8DE8070064107F1C002CEED189
:100FF000194F7F44AE3F19E0E80715D007EB041006
:101000000DF1180A90E80E008AE80E00C068F04260
:1010100001D1981908903246012306A903A800F0CF
:10102000F8FA03AB83E807006D10641C002DE3D1D0
:101030004FF0010332466946B8F1000F03A802D011
:1010400000F0D2FA01E000F0E4FAC9E90001C9F8C1
:1010500008200AB0BDE8F087682C000010B50446EF
:10106000AFF300802046BDE81040FFF7DCB8000079
:101070004FF0013C50F8042B51F8043B9A4221D127
:10108000A2EB0C03934313EACC1317D150F8042BB3
:1010900051F8043B9A4215D1A2EB0C03934313EA97
:1010A000CC130BD150F8042B51F8043B9A4209D1D0
:1010B000A2EB0C03934313EACC13DBD04FF00000F8
:1010C000704700BFD01A01BAB1FA81F101F01801DE
:1010D00022FA01F0CB40C1F12001DBB2C0B2C01A4C
:1010E0002CFA01F3D11A914311EAC311E6D17047EA
:1010F0005FEA400C08BF91F0000F4FEA8C234FEAE3
:10110000C12243EA51514FEA1C5018BF00F5F0408C
:101110004FEA300018BF41F000415FEA6C5C00F01C
:101120002980BCF1FF3F08BF40F080407047130C9E
:1011300006BF12044FF0100C4FF0000C130E04BF4A
:1011400012020CF1080C130F04BF12010CF1040C75
:10115000930F04BF92000CF1020CD30F04BF520096
:101160000CF1010C11464FF00002A0F11F00A0EBA2
:101170000C00704711F0004F08BF704731F000417C
:101180003FF4D5AF0B0C06BF09044FF0100C4FF025
:10119000000C0B0E04BF09020CF1080C0B0F04BF6E
:1011A00009010CF1040C8B0F04BF89000CF1020C37
:1011B000CB0F04BF49000CF1010CCCF12003A0EBD4
:1011C0000C0022FA03F302FA0CF241EA030100F1E7
:1011D0000100704720F07F4C80EA030023F07F4736
:1011E000ACEB070303F57C5300F0004003F1FF0371
:1011F0002DE980494FEA154B09B44FEA144325EA1B
:101200000B4E24EA03480FF2042606EB1327490885
:101210003E785FEA320203FB0667C7F5000707FB6B
:1012200006F64FEA54374FEAD64606F1020607FBA8
:10123000066CCCF1005C4FEA1C472CEA074C07FB1C
:1012400006F40CFB06F504EB15464FEA961634BF80
:1012500000204FF000404FEAD13706FB07FC4FEA71
:101260001C4C0CFB0BF7D21B03FB0CF761EB0701CB
:101270000CFB0EF7B0EB074072EB17420CFB08F7C4
:1012800034BFA2EB0742B2EB074261EB17414FEAD2
:101290000C444FEA910706FB07FC4FEA1C4C0CFB81
:1012A0000BF7B0EBC74072EB573203FB0CF734BFC0
:1012B000A2EBC742B2EBC74261EB57310CFB0EF712
:1012C000B0EBC70072EB57720CFB08F734BFA2EB10
:1012D000C702B2EBC70261EB5771039F4FEA81610E
:1012E00041EA921104EBCC044FEAD1374FEA826213
:1012F00006FB07FC42EA90124FEA80604FEA1C4C62
:101300000CFB0BF7D21B03FB0CF761EB07010CFB8B
:101310000EF7B0EB074072EB17420CFB08F734BF37
:10132000A2EB0742B2EB074261EB17414FEA8C5543
:101330004FEA910704EB9C2406FB07FC4FEA1C4C88
:101340000CFB0BF7B0EBC74072EB573203FB0CF70B
:1013500034BFA2EBC742B2EBC74261EB57310CFB83
:101360000EF7B0EBC70072EB57720CFB08F734BFF7
:10137000A2EBC702B2EBC70261EB577115EB4C252C
:101380004FEA816141EA92114FEA82624FEAD13716
:1013900042EA901206FB07FC44F100044FEA806029
:1013A0004FEA1C4C0CFB0BF7D21B03FB0CF761EB59
:1013B00007010CFB0EF7B0EB074072EB17420CFB7A
:1013C00008F734BFA2EB0742B2EB074261EB1741CB
:1013D00015EB1C154FEA813141EA92414FEA823206
:1013E00042EA90424FEA80304FEA0C7644F1000422
:1013F00048EA03434EEA0B484FF0000EB2EB080CEC
:1014000071EB030724BF624639464EEB0E0E4FF0D8
:10141000000B0018524149414BEB0B0BB2EB080C8F
:1014200071EB03077BF1000B24BF624639464EEB9C
:101430000E0E4FF0000B0018524149414BEB0B0BC5
:10144000B2EB080C71EB03077BF1000B24BF624683
:1014500039464EEB0E0E51EA020718BF46F0010660
:1014600016EB0E7655F1000254F1000103D5BDE8EC
:101470008901BDE80088BDE88901BDE80048B619CA
:10148000524141EB0101A3F10103704780807F7E4F
:101490007D7C7B7A797877767675747372717170EA
:1014A0006F6E6E6D6C6C6B6A6A696868676666659C
:1014B0006464636362616160605F5F5E5E5D5D5C2A
:1014C0005C5B5B5A5A59595858575756565555559B
:1014D0005454535352525251515050504F4F4F4EFB
:1014E0004E4D4D4D4C4C4C4B4B4B4A4A4A49494949
:1014F000484848474747474646464545454444448B
:10150000444343434342424242414141002B9C46B3
:1015100030D477002BD01CB54FEA370703B44FF017
:1015200010004FF01001BAF1000F06D0BCF1000F0F
:10153000DCBF40F0080040F008014FF000000FBC95
:10154000BDE810400BF1010BBBF1010F08BF5FEAD2
:10155000170722BF12F1010211F101014FF0004102
:1015600043F1000300F0004043EA00007047F9D364
:101570005708D0E746EA064613F1400F4FEA1646F1
:101580001FDD13F1200FDFBF16430A460021203371
:101590005B42BED0C3F1200746EA064602FA07F7CF
:1015A0004FEA164646EA0706C3F1200722FA03F27D
:1015B00001FA07F721FA03F14FF0000342EA0702AC
:1015C000A7E746EA020646EA06464FEA164646EA14
:1015D0000106BCBF46EA0646360C4FF000034FF04A
:1015E00000024FF0000194E72DE9804C9A469346A3
:1015F00070B491E8380007C831EA400C48BF34EABB
:10160000430C03D5FFF7E6FDFFF780FFF0BCBDE814
:10161000008C2DE9804C9A46934670B491E83800CE
:1016200007C810F0804F08BF13F0804F03D100F0BF
:1016300005F8FFF76BFFF0BCBDE8008C20F07F479A
:1016400080EA030023F07F4C07EB0C03A3F57C53E7
:1016500000F00040A3F1FE0392F0000F00F0B38011
:1016600095F0000F00F077802DE901494FEA114015
:101670004FEA144621EA004800FB06FC24EA06472C
:1016800008FB06F607FB08F800FB07F718EB06480F
:101690004CEB164C4FEA124B18EB07484FEA154635
:1016A0004CEB174022EA0B4E0BFB06FC25EA0647E3
:1016B0000EFB06F607FB0EFE0BFB07F71EEB064EB6
:1016C0004CEB164C4FF000061EEB074E4CEB174B45
:1016D00018EB0B0840F1000018EB0E0B58EB00085C
:1016E00040F100008F1A4FF000013CBFC943661B58
:1016F00014BFB5EB040C00213CBFC943F61B4FEAF5
:1017000017444EEA8E0E27EA04454FEA1C4704FBB5
:1017100007622CEA074C05FB07F70CFB05F604FBF8
:101720000CFC16EB074642EB174216EB0C4642EB5D
:101730001C421BEB060658EB0202414146EA9E069C
:1017400001D5BDE80189B619524141EB0101A3F170
:101750000103BDE801894FEA14454FEA114724EA25
:10176000054621EA074C05FB07F406FB07F70CFBCF
:1017700006F105FB0CFC11EB074144EB17444FEA63
:10178000124711EB0C4144EB1C4422EA074C05FBC9
:1017900007F206FB07F70CFB06F605FB0CFC16EB45
:1017A000074642EB174216EB0C4642EB1C456A1803
:1017B00054F1000148BF7047B619524141EB010195
:1017C000A3F10103704795F0000F37D04FEA1142A3
:1017D0004FEA144721EA024624EA074C02FB07F1CC
:1017E00006FB07F70CFB06F402FB0CFC14EB0744AA
:1017F00041EB17414FEA154714EB0C4441EB1C41F8
:1018000025EA074C02FB07F506FB07F70CFB06F67B
:1018100002FB0CFC16EB074645EB174516EB0C4696
:1018200045EB1C42121951F1000148BF7047B6192F
:10183000524141EB0101A3F1010370474FEA144506
:101840004FEA114724EA054621EA074C05FB07F158
:1018500006FB07F70CFB06F24FF0000605FB0CFC3D
:1018600012EB074241EB174112EB0C4251EB1C41CA
:1018700048BF7047921841EB0101A3F10103704783
:1018800000BFFEE70A48006878B1094A1268094BB0
:101890001B68B2FBF3F14FF4AA7201FB02F00022C5
:1018A000034B1A60044B1A7070474FF0FF30FBE790
:1018B000700000203C0000207400002006480078E2
:1018C000012805D1054908680021034A11707047B5
:1018D0004FF0FF30FBE70000740000207000002094
:1018E0001FB50121042000F005FF2020ADF80C00F9
:1018F00010208DF80F0003208DF80E0003A9224858
:1019000000F004FB0020214908600121042000F0C0
:10191000F1FE1020ADF80C0004208DF80F0003201C
:101920008DF80E0003A9184800F0F0FA01210846CE
:1019300000F0E0FE0421002000F0C8FA1020009022
:1019400000208DF8040010208DF8050001208DF88E
:101950000600684600F070FA4FF4407000F090FD09
:101960000A208DF8080003208DF8090000208DF86A
:101970000A0001208DF80B0002A800F049FD0020AC
:10198000034908701FBD0000000801409401214276
:101990007400002010B50120044908600A2000F0FE
:1019A000F5F900200249C1F8940110BD94012142CB
:1019B000000021422DE9F04105460E46FFF7EAFFFF
:1019C000142001F033FCFFF779FF0746781C08B9B3
:1019D000BDE8F081FFF756FF04460648B4FBF0F07F
:1019E00028600448B4FBF0F100FB1140306000BFF8
:1019F000EEE7000040420F001748007860B9174832
:101A00000068174908604FF0E020806948600120B5
:101A1000114908700020704710490968104A916008
:101A20004FF0E0218969D160114689681268891AEE
:101A30000B4A52680B4B1B6801FB0321084AD26812
:101A4000881A0021044A1170054A116051609160A2
:101A5000D16000BFDFE70000380000203400002024
:101A6000A80000204000002070B501252A48006829
:101A700008B9012000E000202749086027480068D5
:101A800020F07060254908600846006840F040700A
:101A9000086000202249C1F89801142000F05AF98A
:101AA00001201F49C1F898011C48006820F07060AF
:101AB0001A4908600846006840F00060086023206A
:101AC00000F064F9002408E0601CC4B2142C01DDAD
:101AD000284670BD022000F059F91248006801281C
:101AE000F2D00025322000F051F9002408E0601CFB
:101AF000C4B2142C01DD2846EBE7022000F046F9C1
:101B0000084800680028F2D000BF06480068012895
:101B1000FBD02846DDE70000988121420008014003
:101B20000000214218012142F8B505460E46032067
:101B30000090684600F058F804469DF8000010B187
:101B40009DF80000F8BD0F2000EA147000EB800043
:101B5000C4F3036101EB40002860C4F3033000EBE1
:101B60008000C4F3032101EB4000306000200090AE
:101B70009DF80000E6E7000008B501210C2000F008
:101B8000B9FD4020ADF8000010208DF803000320BF
:101B90008DF8020069460F4800F0B8F96020ADF8F2
:101BA000000069460C4800F0B1F90A48006820F0CE
:101BB0007060084908600846006840F0407008609E
:101BC00001200649086000200549C1F89401054933
:101BD000086008BD00080140000C01409801214246
:101BE00000802142988121422DE9F04706464FF0BE
:101BF000000A0FE00AF1010000F0FF0ABAF1030F3A
:101C000004DD012030700020BDE8F0874FF4FA7049
:101C100000F0A0F8FFF728FF0028EBD18046002550
:101C20000024814600273DE03E48006808B90120B5
:101C300000E000203B49086000243F0200251EE030
:101C40006006040E00BF384800680028FBD028203A
:101C500000F09CF83348001F006808B9012000E03C
:101C600000203049091F08603048D0F8180120438F
:101C7000C4B200BF2C4800680128FBD06D1C082DA1
:101C8000DEDB274309EB040000F0FF0900BF264814
:101C900000680128FBD000BF234800680028FBD063
:101CA00008F10108B8F1040FBEDB1E48006808B94E
:101CB000012000E000201B49086000251EE06006AE
:101CC000040E00BF184800680028FBD0282000F050
:101CD0005DF81448001F006808B9012000E00020EA
:101CE0001049091F08601148D0F818012043C4B2F8
:101CF00000BF0D4800680128FBD06D1C082DDEDBFD
:101D00000848006808B9012000E000200549086083
:101D10004C4503D002203070384675E70020307003
:101D2000384671E798812142180121420000214282
:101D30007CB504460D46002001900090694601A83C
:101D4000FFF7F2FE064601982060009828607CBDEF
:101D5000704700000C4B1B6819184FF0E0239A697C
:101D60000EE0094B1B688B4205D14FF0E0239B69C5
:101D7000934200D805E0044B1B688B4200D900E079
:101D8000EFE700BF704700003400002070B5034645
:101D900000220E4E366803FB06F44FF0E02675690C
:101DA000B16910E04FF0E026B06988420BD088425C
:101DB00002D20E1A324402E02E1A0E443244014678
:101DC000A24200D300E0EDE700BF70BD3C00002060
:101DD00010B5FFF711FE044664B1094800780128E8
:101DE00003D1102000F022F810BD06480460012045
:101DF00003490870102000F019F800BFF4E7000054
:101E0000740000207000002010B50220FFF7A2FF30
:101E100001200449087004490860802000F006F899
:101E200010BD00006D000020908121420149086032
:101E30007047000014040140002123498279002AE0
:101E40003AD00A46126803689A430B461A600A1D84
:101E5000126803689A430B1D1A60027911440A68DC
:101E600003681A430A60184A0832126803689A43E2
:101E7000154B08331A601A1D126803689A43124BF7
:101E80000C331A604279102A0ED11A1F12680368A7
:101E90001A430D4B08331A601A1D126803681A435F
:101EA000094B0C331A600DE00749427911440A6866
:101EB00003681A430A6005E0027911440A6803685E
:101EC0009A430A60704700000004014030B50022C8
:101ED0008B071C0F0F2303FA04F20B4B8C1053F8E3
:101EE00024309343084C8D1044F8253023468C1041
:101EF00053F824308C07240F00FA04F42343024CD7
:101F00008D1044F8253030BD080001402DE9F04126
:101F1000024600250026002000230024002791F817
:101F200003C00CF00F0591F803C00CF0100CBCF1CD
:101F3000000F03D091F802C04CEA050591F800C0EB
:101F4000BCF1000F31D0146800202BE04FF0010CE1
:101F50000CFA00F3B1F800C00CEA03069E4220D14F
:101F600083004FF00F0C0CFA03F7BC4305FA03FC97
:101F70004CEA040491F803C0BCF1280F06D14FF0DD
:101F8000010C0CFA00FCC2F814C00AE091F803C07E
:101F9000BCF1480F05D14FF0010C0CFA00FCC2F85F
:101FA00010C0401C0828D1D31460B1F800C0BCF1A7
:101FB000FF0F34DD546800202EE000F1080C4FF0D4
:101FC000010808FA0CF3B1F800C00CEA03069E42BF
:101FD00021D183004FF00F0C0CFA03F7BC4305FA34
:101FE00003FC4CEA040491F803C0BCF1280F05D1AE
:101FF00000F1080C08FA0CF8C2F8148091F803C03C
:10200000BCF1480F07D100F1080C4FF0010808FAA5
:102010000CF8C2F81080401C0828CED35460BDE8EC
:10202000F08100002DE9F04104460D4600F048F82B
:1020300006461248301A40F2A771B0FBF1F020605A
:102040000E48301AB0FBF1F201FB12006421484344
:1020500040F2A771B0FBF1F028600848864202D236
:102060000020206028602068296840EA010717B135
:102070000020BDE8F0810120FBE70000AF87810070
:1020800008B50121082000F035FB0220ADF8000062
:1020900010208DF8030003208DF8020069460748E0
:1020A000FFF734FF0120ADF8000048208DF8030051
:1020B00069460248FFF72AFF08BD0000000C0140F6
:1020C00070B500240020164908600120FFF75EFE6D
:1020D00000BF1348843800680028FAD100250FE0BB
:1020E00001200F490860FFF751FE640000200D49F0
:1020F000C1F884010A488438006800B1641C6D1C72
:10210000182DEDDB01200649086084F40004FFF778
:102110003DFE00200349C1F88401204670BD000047
:1021200084812142008021427CB504460D46002076
:1021300001900090694601A8FFF774FF06460198D8
:102140002060009828607CBD00BFFEE7034800685F
:1021500000F1010001490860704700005C000020A8
:1021600008B50121082000F0C5FAC020ADF8000034
:1021700010208DF8030003208DF802006946054801
:10218000FFF7C4FE0120044908600449C1F89C011E
:1021900008BD0000000C01409881214200802142CE
:1021A00070B504461548006820F070401349086077
:1021B0000846006840F04050086000201049086060
:1021C000002517E0E0090E49091D08606006040EAD
:1021D0000220FFF7DBFD01200A49C1F89801022027
:1021E000FFF7D4FD0020064908600220FFF7CEFD6E
:1021F000681CC5B2082DE5DB70BD0000000C014075
:10220000988121420080214210B50F48006820F0DB
:1022100070400D4908600846006840F04050086072
:1022200001200A4908600A49C1F898010420FFF713
:10223000ADFD0020054908600420FFF7A7FD002040
:102240000349C1F8980110BD000C01409C81214256
:102250000080214210B51D48006820F070401B49E5
:1022600008600846006840F04050086000201849A7
:1022700008600220FFF78AFD00201649C1F89C0182
:102280000420FFF783FD0120114908600220FFF7B9
:102290007DFD01200F49C1F89C010EE000200C4992
:1022A000086001200B49C1F89801FFF76FFD01207C
:1022B0000749091D0860FFF769FD05487C3800687B
:1022C0000028EBD00420FFF761FD10BD000C014099
:1022D000988121420080214210B5002414480068F2
:1022E00020F07040124908600846006840F0004045
:1022F000086001200F490860FFF748FD01200E49E2
:10230000C1F89801FFF742FD07E0601CC4B2FA2C47
:1023100003DDFFF79FFF012010BD064880380068ED
:102320000028F2D10349091F086000BFF4E700004C
:10233000000C01409C81214200802142034800782A
:1023400010B1012002490870704700006D000020A4
:10235000780000201FB501210C2000F0CBF980206F
:10236000ADF80C0028208DF80F0003208DF80E002A
:1023700003A92148FFF7CAFD1020ADF80C008DF825
:102380000F0003208DF80E0003A91C48FFF7BEFDC7
:1023900000201B4908600121084600F0ABF9072125
:1023A0000020FFF793FD8020009000208DF80400AE
:1023B00010208DF8050001208DF806006846FFF713
:1023C0003BFD4FF4407000F05BF817208DF80800DB
:1023D00003208DF8090000208DF80A0001208DF8F7
:1023E0000B0002A800F014F8002006490870084607
:1023F000007804B010BD000000080140000C01404E
:10240000908121426D00002000BFFEE77047000070
:1024100070B5002100230F22C47804B3154C246842
:1024200004F4E064C4F5E064210AC1F10403CA4085
:10243000447804FA03F184781440214309010E4CD6
:102440000678A155047804F01F050124AC400578F6
:102450006D11AD0005F1E025C5F8004109E00478F3
:1024600004F01F050124AC40044D0678761145F8B0
:10247000264070BD0CED00E000E400E080E100E0EB
:1024800002490143024A1160704700000000FA054A
:102490000CED00E010B5002000F001F810BD70B5A3
:1024A0000646002415E004F1B001C8B200F018FDA2
:1024B000002000F015FD102000F012FD002504E0C2
:1024C000304600F014FD681CC5B2802DF8DB601C9E
:1024D000C4B2082CE7DB70BD10B56420FFF73AFCEE
:1024E000AE2000F0FDFC202000F0FAFC102000F0EF
:1024F000F7FCB02000F0F4FCC82000F0F1FC002054
:1025000000F0EEFC102000F0EBFC402000F0E8FCB6
:10251000812000F0E5FCFF2000F0E2FCA12000F0AB
:10252000DFFCA62000F0DCFCA82000F0D9FC3F2056
:1025300000F0D6FCA42000F0D3FCD32000F0D0FCA7
:10254000002000F0CDFCD52000F0CAFCF02000F007
:10255000C7FCD92000F0C4FC222000F0C1FCDA2026
:1025600000F0BEFC122000F0BBFCDB2000F0B8FC49
:10257000202000F0B5FC8D2000F0B2FC142000F00B
:10258000AFFCAF2000F0ACFC10BD70B504460D46AA
:1025900005F1B001C8B200F0A3FC102141EA14100B
:1025A00000F09EFC04F00F0141F0010000F098FCE7
:1025B00070BD00002DE9F0470646894617469A4649
:1025C0004FF0000800240025BAF1010F03D0BAF142
:1025D000020F5FD125E020E0785D203800F0FF0891
:1025E0007E2E04DD002609F1010000F0FF094946B6
:1025F0003046FFF7CAFF002409E008EB4801274AEC
:1026000002EB4101085D00F072FC601CC4B2062CB4
:10261000F3DBB01DC6B2681CC5B2785D0028DBD103
:1026200038E033E0785D203800F0FF08782E04DDD4
:10263000002609F1010000F0FF0949463046FFF786
:10264000A4FF002407E004EB0811154A505C00F0D9
:102650004EFC601CC4B2082CF5DB09F10100C1B2CC
:102660003046FFF792FF002409E0082101EB081132
:1026700021440B4A505C00F03AFC601CC4B2082CA8
:10268000F3DB06F10800C6B2681CC5B2785D00280D
:10269000C8D100BF00BFBDE8F087000018330008B4
:1026A0004035000870B505460C46FFF7ADFD7820B3
:1026B000FFF776FDFFF710FE2846FFF771FDFFF7E5
:1026C0000BFE2046FFF76CFDFFF706FEFFF7C2FD8D
:1026D00070BD704729B1064AD2690243044BDA61E2
:1026E00004E0034AD2698243014BDA61704700007B
:1026F0000010024029B1064A92690243044B9A61D4
:1027000004E0034A92698243014B9A6170470000DA
:102710000010024030B500210022002400232D4D7E
:102720006D6805F00C0121B1042905D0082923D1D9
:1027300005E0294D056022E0274D05601FE0254D8D
:102740006D6805F47012234D6D6805F48034022520
:1027500005EB92421CB9214D554305600BE01D4D20
:102760006D6805F400351DB11C4D5543056002E050
:10277000194D5543056002E0174D056000BF00BFCD
:10278000144D6D6805F0F0010909154D6B5C056885
:10279000DD4045600F4D6D6805F4E061090A104D9C
:1027A0006B5C4568DD4085600A4D6D6805F46051DD
:1027B000C90A0B4D6B5C4568DD40C560054D6D6811
:1027C00005F44041890B074D6B5CC568B5FBF3F51B
:1027D000056130BD0010024000127A0000093D0082
:1027E0000000002010000020704710B500F002F833
:1027F00010BD00000CB50020019000903348006827
:1028000040F480303149086000BF3048006800F46F
:10281000003000900198401C0190009818B9019870
:10282000B0F5A06FF1D12948006800F4003010B174
:102830000120009001E0002000900098012843D181
:102840002348006840F010002149086008460068ED
:1028500020F0030008600846006840F002000860AD
:102860001A48406819494860084640684860084668
:10287000406840F4806048600846406820F47C105E
:1028800048600846406840F4E81048600846006820
:1028900040F08070086000BF0C48006800F00070D5
:1028A0000028F9D00948406820F003000749486033
:1028B0000846406840F00200486000BF0348406896
:1028C00000F00C000828F9D10CBD000000100240F7
:1028D00000200240042808D14FF0E021096941F0AE
:1028E00004014FF0E022116107E04FF0E021096997
:1028F00021F004014FF0E0221161704702480068A6
:10290000401C0149086070473400002010B513488E
:10291000006840F00100114908600846406810490D
:1029200008400E494860084600680E4908400B49B7
:1029300008600846006820F4802008600846406867
:1029400020F4FE0048604FF41F008860FFF74DFF41
:102950004FF000600449086010BD00000010024004
:102960000000FFF8FFFFF6FE08ED00E010B51C4880
:1029700000681C49B0FBF1F01B490860084600687C
:102980004FF47A714843194908606FF00400FFF76B
:10299000A1FF002016490870401E0121002807DA17
:1029A0000A07140E134A00F00F031B1FD45403E050
:1029B0000A07130E104A135400BF104800680B4951
:1029C000096848434FF0E02148610846006940F03B
:1029D000020008610846006940F00100086110BD6E
:1029E0001400002000127A003C000020400000206B
:1029F0003800002018ED00E000E400E04400002072
:102A000010B586B00446012144F20400FFF772FEBF
:102A10004FF40070ADF8140018208DF81700032053
:102A20008DF8160005A91C48FFF770FA4FF4806076
:102A3000ADF8140004208DF8170005A91648FFF71B
:102A400065FA01940020ADF80800ADF80A00ADF871
:102A50000C00ADF810000C20ADF80E0001A90F48D5
:102A600000F058F925208DF8000003208DF80100B2
:102A70008DF8020001208DF803006846FFF7C8FCBE
:102A8000012240F22551054800F01EF901210348BA
:102A900000F001F906B010BD000801400038014007
:102AA00010B540F22551114800F001F9E0B110488D
:102AB000407800280CDD00210D4A5170002004E010
:102AC00000210B4A1154411CC8B20028F8DB00BF9A
:102AD000064800F08BF9C1B2054842784078401CA6
:102AE000034B58701846815410BD00000038014057
:102AF0004C00002010B586B0044601210420FFF7E9
:102B0000F9FD01214804FFF7E5FD0420ADF81400AC
:102B100018208DF8170003208DF8160005A91C4811
:102B2000FFF7F4F90820ADF8140004208DF8170021
:102B300005A91748FFF7EAF901940020ADF808004D
:102B4000ADF80A00ADF80C00ADF810000C20ADF89F
:102B50000E0001A90F4800F0DDF826208DF80000D6
:102B600003208DF801008DF8020001208DF803008C
:102B70006846FFF74DFC012240F22551054800F060
:102B8000A3F80121034800F086F806B010BD00004C
:102B9000000801400044004010B540F225511C4897
:102BA00000F085F828B31B48D0F80401B0F5807F09
:102BB00010D9184918A0FDF779FB00201549C1F874
:102BC0000401002403E0002012490855641CFF2C76
:102BD000F9D900BF0E4800F009F9C2B20D48D0F88B
:102BE0000411D0F80401401C0A4BC3F80401184634
:102BF00042544FF45871064800F059F830B108219A
:102C0000034800F03FF8024800F0F0F810BD000063
:102C100000440040C001002025730D0A00000000A0
:102C20000FB438B5002400BF134800680028FBD05B
:102C300005A800904FF480711048009B049AFDF79E
:102C40001BFB002000900DE02046641C0B4A115C29
:102C50000B4800F0D0F800BF8021094800F027F8A9
:102C60000028F9D0FF2C03D80448005D0028EBD1E0
:102C700038BC5DF814FB000054000020B8000020B0
:102C80000044004001F40072B2F5007F00D100BFA3
:102C9000CA430280704721B1828942F40052828186
:102CA00004E082894DF6FF731A4082817047024624
:102CB0000020B1F5007F00D100BF13880B400BB19D
:102CC000012000E000207047F0B5034600240026F4
:102CD0000025002040F66A17B94200D100BF18460F
:102CE000C1F3421401F01F06012707FA06F5012C73
:102CF00001D10C3004E0022C01D1103000E014307E
:102D00001AB107682F43076002E00768AF43076006
:102D1000F0BD00002DE9F04786B005460E460024C0
:102D2000A24600BFA1460027B08900B100BF2F46D0
:102D30002C8A4CF6FF700440F08804432C82AC8946
:102D40004EF6F3100440B088318908437189084376
:102D50000443AC81AC8A4FF6FF400440B089044381
:102D6000AC8201A8FFF7D6FC1F48874202D1DDF8EC
:102D700010A001E0DDF80CA0A88900F4004040B1EB
:102D80000AEBCA0000EB0A1031684900B0FBF1F809
:102D900007E00AEBCA0000EB0A1031688900B0FBBB
:102DA000F1F86420B8FBF0F004012009642101FB74
:102DB0001089A88900F4004040B1322000EBC9001E
:102DC000B0FBF1F000F00700044308E0322000EB14
:102DD00009106421B0FBF1F000F00F0004432C81D6
:102DE00006B0BDE8F0870000003801400146888841
:102DF000C0F308007047C1F308028280704700BF2B
:102E0000FEE700000020014908607047082C0040E0
:102E100040F08001014A116070470000002C004022
:102E20000120014908607047A480054210B56B205D
:102E300000F02EF8FFF7E6FF0848D0E90010491C23
:102E400040F10000054AC2E900100548006820B1C1
:102E500003480068401E0249086010BD6000002061
:102E60006800002008B54FF44070FFF709FB002010
:102E70008DF8000001208DF8010000208DF802007F
:102E800001208DF803006846FFF7C2FA08BD000074
:102E900000F07F01014A116070470000002C0040E3
:102EA0000021044A126822F4C0710143014A1160F2
:102EB00070470000042C004008B50021009107492C
:102EC000096821F07F01009100F07F01009A114311
:102ED0000091024A0099116008BD0000042C0040D6
:102EE00010B5044621460020FFF7DCFB10BD10B5ED
:102EF000044621464020FFF7D5FB10BD490050EAAB
:102F0000C12018BF04204A0D18BF40F0010040F254
:102F1000FF72B2EB515F08BF40F00200012808BF0A
:102F20000520704730380A2801D201207047002060
:102F30007047014600BF704700BF054A128802F083
:102F40004002002AF9D0C2B2014B1B1D1A80704703
:102F50000038014000F00CF9C8E000246448006823
:102F6000012801D144F001046148001D00680128D6
:102F700001D144F002045E4808300068012801D104
:102F800044F00404012C04D15A4841685AA0FFF7C8
:102F900047FE022C04D15748816857A0FFF740FE36
:102FA000032C04D15348017853A0FFF739FE042CB9
:102FB00004D15048C16850A0FFF732FE052C04D15F
:102FC0004C4801694CA0FFF72BFE062C04D1494860
:102FD000416949A0FFF724FE072C04D145488169C7
:102FE00045A0FFF71DFEFFF7A9F94448027844A168
:102FF0004748FDF767F90123454A04210A20FFF7F6
:10300000D9FA44494448FEF793FE424800683949DA
:1030100048604148006888603E4840A102683C48DA
:10302000FDF750F901233A4A00210A20FFF7C2FABE
:1030300039483EA102683648FDF744F90123344A75
:1030400019460A20FFF7B6FA4FF4FA70FEF782FE2F
:1030500030493148FFF768F82F4800682549486132
:103060002C48006888612B4803682B4833A102680C
:103070002748FDF727F90123254A02210A20FFF7F7
:1030800099FA4FF4FA70FEF765FE19488C30006823
:1030900008B9012000E0002015498C3108601D4965
:1030A0001D48FEF787FC1C4800681249C860194893
:1030B0000068086117480368174826A10268144889
:1030C000FDF700F90123124A03210A20FFF772FAE3
:1030D0004FF47A70FEF73EFE2348D0F8B40108B9E9
:1030E000012000E000202149086000BF35E7000012
:1030F0002081214278000020257500006D0000200D
:103100004D51583A20253175202020200000000024
:1031100094000020300000202C00002048554D492C
:103120003A202530327520202020000054454D5093
:103130003A2025303275202020200000574549478D
:1031400048543A20253032752E2530327520202003
:1031500020000000444953543A20253032752E2572
:10316000303675202020200000002242B401224287
:1031700008B501210820FFF7BDFA4FF47060ADF8E3
:10318000000028208DF8030003208DF80200694616
:103190001648FEF7BBFE002015490860FFF7E6FB66
:1031A0004FF4E130FFF72CFC4FF4E130FFF7A2FCC5
:1031B000FFF7D0F80F490870FEF792FBFEF7DCFC32
:1031C000FEF75EFFFEF7CCFFFFF786F9FFF762F927
:1031D000012309A206210A20FFF7ECF9054801782E
:1031E0000BA0FDF763F800F03DF808BD000C0140AE
:1031F000AC812142280000204F4C454420444542E8
:1032000055472053435245454E20202000000000E2
:10321000496E697469616C697A6564204F4B2C2032
:10322000666C6167203D2025640D0A0070B5044678
:10323000094805680520B4FBF0F00849086000BFA4
:10324000064800680028FBD103480068A842F7D868
:1032500003480068804770BD002C004068000020D3
:103260005800002008B50121C802FFF733FA0121F8
:103270001020FFF73FFA4FF40050ADF80000102087
:103280008DF8030003208DF8020069460A48FEF716
:103290003DFE0020FFF704FE6B20FFF70DFEFFF759
:1032A000BFFD6B20FFF7F4FDFFF7ACFDFFF7DAFD84
:1032B0006B20FFF7ADFD08BD0010014010B50029DF
:1032C0000AD00878002807D005487844FDF7D0FEDA
:1032D000002801D0002010BD0248784410BD000035
:1032E0005E0900005609000010B500290AD00878D0
:1032F000002807D005487844FDF7BAFE002801D021
:10330000002010BD0248784410BD00004E090000A6
:1033100046090000FDF74EBC000000000000000060
:10332000002F000000000700070000147F147F1426
:1033300000242A7F2A1200626408132300364955AC
:10334000225000000503000000001C224100000084
:1033500041221C000014083E08140008083E08081A
:10336000000000A060000008080808080000606075
:103370000000002010080402003E5149453E0000B4
:10338000427F4000004261514946002141454B3196
:10339000001814127F10002745454539003C4A4962
:1033A00049300001710905030036494949360006D4
:1033B0004949291E0000363600000000563600003C
:1033C00000081422410000141414141400004122B7
:1033D000140800020151090600324959513E007C8F
:1033E0001211127C007F49494936003E4141412279
:1033F000007F4141221C007F49494941007F090962
:103400000901003E4149497A007F0808087F000011
:10341000417F4100002040413F01007F08142241CC
:10342000007F40404040007F020C027F007F040884
:10343000107F003E4141413E007F09090906003EE0
:103440004151215E007F0919294600464949493109
:103450000001017F0101003F4040403F001F20402C
:10346000201F003F4038403F0063140814630007EA
:103470000870080700615149454300007F41410041
:1034800000552A552A55000041417F0000040201E1
:1034900002040040404040400000010204000020BF
:1034A00054545478007F48444438003844444420FD
:1034B00000384444487F00385454541800087E09AA
:1034C00001020018A4A4A47C007F08040478000072
:1034D000447D4000004080847D00007F102844002F
:1034E0000000417F4000007C04180478007C080440
:1034F000047800384444443800FC2424241800187C
:10350000242418FC007C0804040800485454542067
:1035100000043F444020003C4040207C001C2040F0
:10352000201C003C4030403C004428102844001C33
:10353000A0A0A07C004464544C441414141414142B
:10354000000000000000000000000000000000007B
:10355000000000F800000000000000333000000010
:1035600000100C06100C0600000000000000000017
:1035700040C07840C0784000043F04043F04040089
:10358000007088FC08300000001820FF211E000099
:10359000F008F000E018000000211C031E211E00AE
:1035A00000F00888700000001E2123241927211034
:1035B00010160E00000000000000000000000000D7
:1035C000000000E01804020000000007182040007E
:1035D00000020418E000000000402018070000006E
:1035E000404080F0804040000202010F01020200D2
:1035F000000000F0000000000101011F01010100B6
:10360000000000000000000080B07000000000001A
:1036100000000000000000000001010101010101A3
:10362000000000000000000000303000000000003A
:10363000000000008060180400601806010000000F
:1036400000E010080810E000000F102020100F000C
:10365000001010F8000000000020203F2020000093
:1036600000700808088870000030282422213000EB
:1036700000300888884830000018202020110E00F3
:103680000000C02010F8000000070424243F24009C
:1036900000F80888880808000019212020110E0071
:1036A00000E0108888180000000F112020110E0083
:1036B00000380808C83808000000003F000000007B
:1036C0000070880808887000001C222121221C003C
:1036D00000E010080810E0000000312222110F0065
:1036E000000000C0C00000000000003030000000FA
:1036F000000000800000000000008060000000006A
:103700000000804020100800000102040810200082
:1037100040404040404040000404040404040400CD
:103720000008102040800000002010080402010062
:10373000007048080808F000000000303601000062
:10374000C030C828E810E0000718272423140B0015
:103750000000C038E0000000203C2302022738208F
:1037600008F8888888700000203F202020110E0073
:10377000C03008080808380007182020201008006A
:1037800008F808080810E000203F202020100F0053
:1037900008F88888E8081000203F2020232018001F
:1037A00008F88888E8081000203F20000300000087
:1037B000C03008080838000007182020221E020028
:1037C00008F808000008F808203F210101213F20E7
:1037D000000808F8080800000020203F2020000012
:1037E00000000808F8080800C08080807F00000002
:1037F00008F888C028180800203F2001263820003B
:1038000008F8080000000000203F202020203000A1
:1038100008F8F800F8F80800203F003F003F2000BB
:1038200008F830C00008F808203F200007183F00C3
:10383000E01008080810E0000F10202020100F00F2
:1038400008F808080808F000203F210101010000E5
:10385000E01008080810E0000F18242438504F002A
:1038600008F8888888887000203F2000030C3020EA
:1038700000708808080838000038202121221C0028
:10388000180808F8080818000000203F2000000071
:1038900008F808000008F808001F202020201F005A
:1038A0000878880000C83808000007380E010000BA
:1038B000F80800F80008F800033C0700073C030084
:1038C000081868808068180820302C03032C3020EA
:1038D0000838C800C83808000000203F2000000059
:1038E00010080808C83808002038262120201800B1
:1038F000000000FE020202000000007F4040400085
:10390000000C30C000000000000000010638C000BC
:1039100000020202FE000000004040407F00000064
:103920000000040202020400000000000000000089
:103930000000000000000000808080808080808087
:10394000000202040000000000000000000000006F
:1039500000008080808000000019242222223F2065
:1039600008F8008080000000003F112020110E00A8
:103970000000008080800000000E11202020110037
:10398000000000808088F800000E112020103F20E9
:103990000000808080800000001F2222222213006D
:1039A000008080F0888888180020203F20200000B8
:1039B0000000808080808000006B9494949360006D
:1039C00008F8008080800000203F210000203F2078
:1039D00000809898000000000020203F2020000078
:1039E000000000809898000000C08080807F000068
:1039F00008F8000080808000203F24022D30200045
:103A0000000808F8000000000020203F20200000EF
:103A10008080808080808000203F20003F20003F09
:103A20008080008080800000203F210000203F2017
:103A30000000808080800000001F202020201F00C8
:103A4000808000808000000080FFA12020110E00F7
:103A50000000008080808000000E112020A0FF80E8
:103A6000808080008080800020203F212000010095
:103A700000008080808080000033242424241900EA
:103A8000008080E0808000000000001F20200000F7
:103A90008080000000808000001F202020103F2038
:103AA000808080000080808000010E3008060100C8
:103AB00080800080008080800F300C030C300F006D
:103AC00000808000808080000020312E0E31200098
:103AD000808080000080808080818E7018060100C8
:103AE00000808080808080000021302C22213000E6
:103AF00000000000807C020200000000003F404007
:103B000000000000FF00000000000000FF000000B7
:103B10000002027C800000000040403F00000000E6
:103B20000006010102020404000000000000000081
:103B30000400000800000000000000020001000076
:103B4000100000000000000000000000303132339F
:103B500034353637383941424344454640305800C1
:103B600030313233343536373839616263646566F3
:103B70004030780002400000000000A0000000007B
:103B800005400000000000C8000000000C400000DC
:103B90000000409C00000000194000000020BCBE56
:103BA0000000000034400000BFC91B8E000000046C
:103BB000B5400000504BCFD06607E2CF01000000B7
:103BC0006C4100003E8251AADFEEA73401000000E4
:103BD000D9420000DCB5A0E23A301F97FFFFFFFF9B
:103BE000B4450000FD25A0C8E9A3C14FFFFFFFFFBA
:103BF000FF3F00000000008000000000FF3F0000C9
:103C00000000008000000000543D0008000000207B
:103C10007800000028010008CC3D00087800002052
:103C2000B0080000440100081C0000004300000030
:103C3000F8FFFFFF0C0000000E0000000F00000066
:103C40002E0000001001000043000000F8FFFFFFFD
:103C5000004040404040404040404141414141409F
:103C60004040404040404040404040404040404054
:103C700040050202020202020202020202020202E3
:103C800002202020202020202020200202020202E8
:103C90000202909090909090101010101010101040
:103CA000101010101010101010101010020202024C
:103CB0000202888888888888080808080808080890
:103CC000080808080808080808080808020202028C
:103CD00040000000000000000000000000000000A4
:103CE00000000000000000000000000000000000D4
:103CF00000000000000000000000000000000000C4
:103D000000000000000000000000000000000000B3
:103D100000000000000000000000000000000000A3
:103D20000000000000000000000000000000000093
:103D30000000000000000000000000000000000083
:103D40000000000000000000000000000000000073
:103D5000000000000000000001020304010203044F
:103D6000060708090204060800A24A040000000031
:103D7000000000000102030406070809000000001B
:103D80000000000000000000000000000000000033
:103D90000000000000000000010000000000000022
:103DA0000000000000000000010000004D2100089C
:103DB0000000000000000000000000000000000003
:0C3DC000000000000000000000000000F7
:0400000508000235B8
:00000001FF
